{
  "contractName": "CertificateAuthority",
  "abi": [
    {
      "inputs": [],
      "stateMutability": "nonpayable",
      "type": "constructor"
    },
    {
      "inputs": [
        {
          "internalType": "bytes32",
          "name": "_hash",
          "type": "bytes32"
        }
      ],
      "name": "signCertificate",
      "outputs": [
        {
          "internalType": "string",
          "name": "",
          "type": "string"
        },
        {
          "internalType": "uint256",
          "name": "",
          "type": "uint256"
        }
      ],
      "stateMutability": "nonpayable",
      "type": "function"
    },
    {
      "inputs": [
        {
          "internalType": "bytes32",
          "name": "_hash",
          "type": "bytes32"
        }
      ],
      "name": "rejectCertificate",
      "outputs": [
        {
          "internalType": "string",
          "name": "",
          "type": "string"
        }
      ],
      "stateMutability": "nonpayable",
      "type": "function"
    },
    {
      "inputs": [
        {
          "internalType": "bytes32",
          "name": "_hash",
          "type": "bytes32"
        },
        {
          "internalType": "address",
          "name": "_issuer",
          "type": "address"
        }
      ],
      "name": "verifyCertificate",
      "outputs": [
        {
          "internalType": "string",
          "name": "",
          "type": "string"
        },
        {
          "internalType": "uint256",
          "name": "k",
          "type": "uint256"
        }
      ],
      "stateMutability": "view",
      "type": "function",
      "constant": true
    }
  ],
  "bytecode": "0x608060405234801561001057600080fd5b50336000806101000a81548173ffffffffffffffffffffffffffffffffffffffff021916908373ffffffffffffffffffffffffffffffffffffffff160217905550610ad5806100606000396000f3fe608060405234801561001057600080fd5b50600436106100415760003560e01c80634b432cc514610046578063873d2cb214610077578063b5024f10146100a7575b600080fd5b610060600480360381019061005b91906106e0565b6100d8565b60405161006e9291906107c9565b60405180910390f35b610091600480360381019061008c91906107f9565b61034c565b60405161009e9190610826565b60405180910390f35b6100c160048036038101906100bc91906107f9565b6103fb565b6040516100cf9291906107c9565b60405180910390f35b60606000806001600086815260200190815260200160002060009054906101000a900460ff16905060006002600087815260200190815260200160002060009054906101000a900460ff1690506000805b600360008873ffffffffffffffffffffffffffffffffffffffff1673ffffffffffffffffffffffffffffffffffffffff16815260200190815260200160002080549050811015610270576000600360008973ffffffffffffffffffffffffffffffffffffffff1673ffffffffffffffffffffffffffffffffffffffff16815260200190815260200160002082815481106101c6576101c5610848565b5b906000526020600020015490508860046001836101e391906108a6565b815481106101f4576101f3610848565b5b90600052602060002090600302016001015414801561024e5750600460018261021d91906108a6565b8154811061022e5761022d610848565b5b906000526020600020906003020160020160149054906101000a900460ff165b1561025c5780925050610270565b508080610268906108da565b915050610129565b5082156103055781156102c157806040518060400160405280601381526020017f5369676e656420616e642052656a6563746564000000000000000000000000008152509094509450505050610345565b806040518060400160405280601381526020017f5369676e656420616e64205665726966696564000000000000000000000000008152509094509450505050610345565b806040518060400160405280601781526020017f4e6f74205369676e6564204e6f7420566572696669656400000000000000000081525090945094505050505b9250929050565b60606002600083815260200190815260200160002060009054906101000a900460ff16156103af576040517f08c379a00000000000000000000000000000000000000000000000000000000081526004016103a690610994565b60405180910390fd5b60016002600084815260200190815260200160002060006101000a81548160ff0219169083151502179055506040518060600160405280602d8152602001610a73602d91399050919050565b606060006001600084815260200190815260200160002060009054906101000a900460ff1615610460576040517f08c379a000000000000000000000000000000000000000000000000000000000815260040161045790610a26565b60405180910390fd5b60046040518060800160405280600480549050815260200185815260200160008054906101000a900473ffffffffffffffffffffffffffffffffffffffff1673ffffffffffffffffffffffffffffffffffffffff168152602001600115158152509080600181540180825580915050600190039060005260206000209060030201600090919091909150600082015181600001556020820151816001015560408201518160020160006101000a81548173ffffffffffffffffffffffffffffffffffffffff021916908373ffffffffffffffffffffffffffffffffffffffff16021790555060608201518160020160146101000a81548160ff0219169083151502179055505050600180600085815260200190815260200160002060006101000a81548160ff021916908315150217905550600360008060009054906101000a900473ffffffffffffffffffffffffffffffffffffffff1673ffffffffffffffffffffffffffffffffffffffff1673ffffffffffffffffffffffffffffffffffffffff16815260200190815260200160002060048054905090806001815401808255809150506001900390600052602060002001600090919091909150556004805490506040518060600160405280602c8152602001610a47602c91399091509150915091565b600080fd5b6000819050919050565b61065f8161064c565b811461066a57600080fd5b50565b60008135905061067c81610656565b92915050565b600073ffffffffffffffffffffffffffffffffffffffff82169050919050565b60006106ad82610682565b9050919050565b6106bd816106a2565b81146106c857600080fd5b50565b6000813590506106da816106b4565b92915050565b600080604083850312156106f7576106f6610647565b5b60006107058582860161066d565b9250506020610716858286016106cb565b9150509250929050565b600081519050919050565b600082825260208201905092915050565b60005b8381101561075a57808201518184015260208101905061073f565b60008484015250505050565b6000601f19601f8301169050919050565b600061078282610720565b61078c818561072b565b935061079c81856020860161073c565b6107a581610766565b840191505092915050565b6000819050919050565b6107c3816107b0565b82525050565b600060408201905081810360008301526107e38185610777565b90506107f260208301846107ba565b9392505050565b60006020828403121561080f5761080e610647565b5b600061081d8482850161066d565b91505092915050565b600060208201905081810360008301526108408184610777565b905092915050565b7f4e487b7100000000000000000000000000000000000000000000000000000000600052603260045260246000fd5b7f4e487b7100000000000000000000000000000000000000000000000000000000600052601160045260246000fd5b60006108b1826107b0565b91506108bc836107b0565b92508282039050818111156108d4576108d3610877565b5b92915050565b60006108e5826107b0565b91507fffffffffffffffffffffffffffffffffffffffffffffffffffffffffffffffff820361091757610916610877565b5b600182019050919050565b7f43657274696669636174652068617320616c7265616479206265656e2072656a60008201527f6563746564000000000000000000000000000000000000000000000000000000602082015250565b600061097e60258361072b565b915061098982610922565b604082019050919050565b600060208201905081810360008301526109ad81610971565b9050919050565b7f43657274696669636174652068617320616c7265616479206265656e2073696760008201527f6e65640000000000000000000000000000000000000000000000000000000000602082015250565b6000610a1060238361072b565b9150610a1b826109b4565b604082019050919050565b60006020820190508181036000830152610a3f81610a03565b905091905056fe55706c6f61646564206365727469666361746520686173205369676e6564206279207468652069737375657255706c6f616465642063657274696663617465206861732052656a6563746564206279207468652061646d696ea264697066735822122091edb7a318b7652770e752c496e7e8e746e460e21db1b1997cc3aedfd947b3ec64736f6c63430008130033",
  "immutableReferences": {},
  "source": "pragma solidity ^0.8.0;\n\ncontract CertificateAuthority {\n    address private admin;\n    mapping(bytes32 => bool) private signedCertificates;\n    mapping(bytes32 => bool) private rejectedCertificates;\n    mapping(address => uint256[]) private certificatesIssued;\n    Certificate[] private certificates;\n    \n    \n    struct Certificate {\n        uint256 id;\n        bytes32 hash;\n        address issuer;\n        bool isSigned;\n    }\n    \n    constructor() {\n        admin = msg.sender;\n    }\n    \n    function signCertificate(bytes32  _hash) public returns(string memory, uint256) {\n        require(!signedCertificates[_hash], \"Certificate has already been signed\");\n        certificates.push(Certificate(certificates.length, _hash, admin, true));\n        \n        signedCertificates[_hash] = true;\n        certificatesIssued[admin].push(certificates.length);\n        return (\"Uploaded certifcate has Signed by the issuer\", certificates.length);\n    }\n    \n    function rejectCertificate(bytes32 _hash) public returns(string memory) {\n        require(!rejectedCertificates[_hash], \"Certificate has already been rejected\");\n        \n        rejectedCertificates[_hash] = true;\n        return (\"Uploaded certifcate has Rejected by the admin\");\n    }\n    \n    function verifyCertificate(bytes32 _hash, address _issuer) public view returns(string memory, uint256 k) {\n\t\t\n        bool isSigned = signedCertificates[_hash];\n        bool isRejected = rejectedCertificates[_hash];\n        uint256 certificateId = 0;\n        for (uint256 i = 0; i < certificatesIssued[_issuer].length; i++) {\n            uint256 id = certificatesIssued[_issuer][i];\n            if (certificates[id-1].hash == _hash && certificates[id-1].isSigned) {\n                certificateId = id;\n                break;\n            }\n        }\n\n        if (isSigned) {\n            if (isRejected) {\n                return (\"Signed and Rejected\", certificateId);\n            } else {\n                return (\"Signed and Verified\",certificateId);\n            }\n        } else {\n            return (\"Not Signed Not Verified\",certificateId);\n        }\n    }\n    \n}\n",
  "sourcePath": "C:\\xampp\\htdocs\\BCertiFY\\contracts\\CertificateAuthority.sol",
  "compiler": {
    "name": "solc",
    "version": "0.8.19+commit.7dd6d404.Emscripten.clang"
  },
  "schemaVersion": "3.4.13",
  "updatedAt": "2023-04-15T16:01:07.134Z",
  "networkType": "ethereum",
  "devdoc": {
    "kind": "dev",
    "methods": {},
    "version": 1
  },
  "userdoc": {
    "kind": "user",
    "methods": {},
    "version": 1
  }
}